:020000040800F2
:1000000040170020A5010008A34F000889470008F9
:1000100000000000000000000000000000000000E0
:10002000000000000000000000000000295D000842
:100030000000000000000000D15900082B5D0008FE
:10004000B7010008B7010008B7010008B7010008B0
:10005000B7010008B7010008B7010008111F000828
:10006000B7010008B7010008B7010008B701000890
:10007000B7010008B7010008B7010008B701000880
:10008000B7010008C15D0008B7010008B70100080A
:10009000B7010008B7010008B7010008B701000860
:1000A000B7010008B7010008B7010008B701000850
:1000B000B7010008B7010008B7010008B701000840
:1000C00000F002F800F042F80CA030C808382418FC
:1000D0002D18A246671EAB4654465D46AC4201D180
:1000E00000F034F87E460F3E0FCCB6460126334270
:1000F00000D0FB1AA246AB4633431847B476000043
:10010000D4760000103A02D378C878C1FAD85207E2
:1001100001D330C830C101D504680C6070470000BD
:100120000023002400250026103A01D378C1FBD813
:10013000520700D330C100D50B6070471FB500983F
:10014000019901F02EF91FBD10B510BD01F0EDF9B8
:100150001146FFF7F3FF06F019FA01F005FA03B4B0
:10016000FFF7F2FF03BC01F065FA000070B5054629
:100170000C46164602E00FCC0FC5103E102EFAD2E8
:10018000082E02D303CC03C5083E042E07D301CCAE
:1001900001C5361F03E021782970641C6D1C761E92
:1001A000F9D270BD0748804707480047FEE7FEE7E1
:1001B000FEE7FEE7FEE7FEE704480549054A064B71
:1001C00070470000BD5D0008C1000008400300202A
:1001D00040170020401300204013002070B5064651
:1001E00001F0C2F8056830460B30C408E400B442A0
:1001F00001D8002070BD68682A46002818D0016820
:10020000A14211D30B46214608318B4208D34368E3
:1002100001194B6003681B1B0B605160046001E017
:1002200041685160001D70BD024640680028E6D15B
:100230002146284601F0A0F80028DCD170BD70B539
:100240000446051F01F090F80068002C1AD044689D
:1002500001E020466468002C01D0AC42F9D301686B
:100260000A18AA4204D12A6805468918016000E0EC
:10027000456028684119A14205D16168696021681B
:100280004018286070BD6C6070BDFEB50546104614
:100290000C46184373D0AE468C460020AD1A01467A
:1002A0009C4167D36646002701243D46B61A9D410E
:1002B00002D313463A462124654676462F04360C6F
:1002C0003E432D0CB61A9D4104D3150C1B042B4341
:1002D00012041034654676462F06360A3E432D0A30
:1002E000B61A9D4104D3150E1B022B43120208348B
:1002F000654676462F0736093E432D09B61A9D41BD
:1003000004D3150F1B012B431201241D65467646AD
:10031000AF07B6083E43AD08B61A9D4104D3950F0A
:100320009B002B439200A41C65467646EF07760897
:100330003E436D08B61A9D411AD392185B41641C66
:1003400016E00018764665464941B71A9D4101916D
:10035000009009D36046B11A98418E4684460098B1
:1003600001990025401C6941DD0752082A435B08BA
:10037000641EE6D57246634603B0F0BDFFE7002079
:100380000146C046C0462A462346F5E7F8B5042A8A
:100390002CD3830712D00B78491C0370401C521ECB
:1003A00083070BD00B78491C0370401C521E830737
:1003B00004D00B78491C0370401C521E8B079B0F06
:1003C00005D0C91ADF002023DE1B08C90AE0FFF7A9
:1003D000CDFEF8BD1D4608C9FD401C46B4402C4367
:1003E00010C0121F042AF5D2F308C91A521EF0D405
:1003F0000B78491C0370401C521EEAD40B78491C30
:100400000370401C012AE4D409780170F8BD01E0B2
:1004100004C0091F0429FBD28B0701D50280801C70
:10042000C90700D00270704700290BD0C30702D063
:100430000270401C491E022904D3830702D50280A2
:10044000801C891EE3E70022EEE70022DFE700229E
:1004500003098B422CD3030A8B4211D300239C4601
:100460004EE003460B433CD4002243088B4231D379
:1004700003098B421CD3030A8B4201D394463FE00D
:10048000C3098B4201D3CB01C01A524183098B426D
:1004900001D38B01C01A524143098B4201D34B0156
:1004A000C01A524103098B4201D30B01C01A5241B9
:1004B000C3088B4201D3CB00C01A524183088B4240
:1004C00001D38B00C01A524143088B4201D34B0029
:1004D000C01A5241411A00D201465241104670479B
:1004E0005DE0CA0F00D04942031000D340425340A0
:1004F00000229C4603098B422DD3030A8B4212D360
:10050000FC22890112BA030A8B420CD38901921191
:100510008B4208D3890192118B4204D389013AD0CE
:10052000921100E08909C3098B4201D3CB01C01AA3
:10053000524183098B4201D38B01C01A52414309B6
:100540008B4201D34B01C01A524103098B4201D3A4
:100550000B01C01A5241C3088B4201D3CB00C01A11
:10056000524183088B4201D38B00C01A5241D9D229
:1005700043088B4201D34B00C01A5241411A00D2AA
:100580000146634652415B10104601D34042002BA6
:1005900000D54942704763465B1000D3404201B525
:1005A0000020C046C04602BD70477047704700003B
:1005B0000246C80FC00781434B0030B54B405B007B
:1005C0009B0D20D01923DB06C91801231B05994276
:1005D00020DB0324A40704251346AB400BD3002BD8
:1005E00004D1EB0613409B00E34204D401246407CA
:1005F000002312195941FF231B0599420BD2C90050
:100600000143500F09E0CB0204D501430803024324
:1006100005D0054830BDFF21C905084330BD084657
:1006200007210905884330BD0000C07FF0B50C46A6
:10063000871A9C410D46861A9D4103D2C01BA141D9
:10064000D21963410D0D1F0DC94EEC1BAE435CD09A
:100650007F057F0D0026002F51D02D05AC46A94304
:10066000DD020123ED0A1B051D4320231B1B24D49F
:100670001746E740381871412F46E740CC199D4096
:100680002818314661410C0D27D161449A4013D599
:100690000023401C594152000ED140084000012265
:1006A0004B005205D34207D305204007C14201D574
:1006B000B04900E0B0493046F0BD6B00002A00D0E0
:1006C00001229A181F23203C1B1B01D5002302E0A6
:1006D000E540281871410C0DD7D0012424050919D3
:1006E000C407CD0740084908E40F28436144002CA3
:1006F000D5D00024401C61419A40D0D1CDE76A0595
:10070000520DD9D1C90FC907D5E79C4D4E0000281D
:1007100001D0012400E0002434195F00002A01D038
:10072000012600E00026BE19954FAC420CD8AE421F
:100730000AD8B44206D001256D05EC42BCD0104663
:100740001946F0BD9942FCD000203946F0BDF0B505
:100750001FB40C460F46811A9F412546861A9D41BB
:1007600006D20125ED076F40401ABC4152187B416B
:10077000210D1E0D8D1BAC467D4D8D437ED0750524
:100780006D0D7CD00D05AE46AC431B031B0B794DA4
:1007900052429D41202366469B1B14D31746F740C7
:1007A000381800260090744160462F460741E4192E
:1007B00000989D402818664116D4714671189A40D9
:1007C00025D5012320E093182A466A415200002BC8
:1007D00000D0521C1E23203E9B1B002B61DD3541A7
:1007E000EE1728186641E8D5001876415B1C9A4040
:1007F00000D3401C4B05F3181524E34010D3002B05
:1008000052D071467118D30FC01802D3491C05B0DD
:10081000F0BD0123DB079A42F9D140084000F6E71A
:1008200001225205B21801D1002853D00123CC0A6D
:10083000DB029943891E002A08D1020C03D0020C66
:100840000004103902E00246002020390023550B35
:1008500005D112020823550B01D152010D23550C6D
:1008600001D112011B1DD50C01D192009B1C150D4D
:1008700001D152005B1C2025EE1A01E02CE022E0A1
:100880000546F54015439840CA1AE1076918130553
:10089000C918002ABBDA032040070818C10FC9078E
:1008A0000FE071466118B2E7F10740080843711084
:1008B00071444A000CD001235B059A42A7D2C90FAC
:1008C000C9070020A3E74905490D26D1002001E012
:1008D0000028F4D100219AE7284D6600002801D0B5
:1008E000012100E0002171185F00002A01D00126DB
:1008F00000E00026BE19224FA94210D8AE420ED801
:10090000B14208D001256D05E94206D01946A8027A
:10091000414010467BE79C4201D0214677E700200A
:10092000394674E710B50C465C4005D50124E40750
:100930006340FFF70CFF10BDFFF778FE10BD30B429
:100940000C465C4004D50124E407634030BC6DE6EE
:1009500030BCFCE670B50124E40761400D465D4003
:1009600002D4FFF763FE70BD6340FFF7F0FE70BD79
:10097000FF0700000000F0FF0000F07F0000E0FF34
:100980000000F87FF0B5F94D0C091E092C402E40EF
:100990002F468BB0A7437DD0B543FCD0002E7AD034
:1009A000002CFCD00D465D40ED0F2543AC1BFF2510
:1009B000AD0464190894C502440DC9022143500DC9
:1009C000DC0204430120C00701430443D202019129
:1009D000200C110C00958C46010423468B430A9190
:1009E00061460904E24D8A430991010A7D4449198F
:1009F0008039097805464D4301266D18F605751BAB
:100A00006943C90C640B891C4C436418B5012C1B49
:100A1000250C2E04B4434C434D43210C691889091D
:100A20000591009DE90701D00121C90704912C46D9
:100A300001996708CD072F434C08059DE10B4D43F5
:100A40002D0C29466646754302950D4645432E46B4
:100A5000029D7D1BB44100950D465D4301942C0C15
:100A60002F040D465543AE462D0C3D43029503948D
:100A70007546049C2D04641B049406D2029C039DBD
:100A8000641C002675410395029401AC70CC009F54
:100A90007D1B01E03EE162E1B4410904009507914C
:100AA00001940599A4086143090C0C464443650B65
:100AB000E7040C4666467443A646640B3C43039524
:100AC00002947446049DE4042C1B049406D2029CF8
:100AD000039D641C002675410395029401AC70CC03
:100AE000009F7D1BB44101940C465C430095650F4B
:100AF000E7000C465443A646640F3C43039502941A
:100B00007446049DE4002C1B049406D2029C039DB1
:100B1000641C002675410395029401AC70CC009FC3
:100B20007D1BB441AE09AF06049DC900AD092F433A
:100B3000049DA406AD060495079D344369180791EA
:100B4000059DE10B4D432D0C2946664675430295E4
:100B50000D4645432E46029D7D1BB44100950D4632
:100B60005D4301942C0C2F040D465543AE462D0CCD
:100B70003D43029503947546049C2D04641B049424
:100B800006D2029C039D641C0026754103950294C5
:100B900001AC70CC009F7D1BB44101948C05069480
:100BA000079C890A611800950791019C0599A40882
:100BB0006143090C0D464543680BEF040D4664463E
:100BC00065436C0B3C43049FED047D1BAC4602D295
:100BD0000025641C6841009E019D371B8541084625
:100BE000584301950C46460FC5005443600F2843F7
:100BF0006546E4002C1B02D20025401C6E41019D7D
:100C00003F1AB5412846BD09800628438446A009FD
:100C1000BF064E020699A40676180743079D0020DA
:100C200068410A99079019430020099B009060468B
:100C3000FF1913434041E20F64003A43A4460446BF
:100C4000D71A8C41A04203D90120009020463A4691
:100C5000C70F941840416246D20F22436446640095
:100C60000494009CBE466400D71AA446044602972A
:100C70008C417746002F01D1A04204D96046401C28
:100C80008446029A2046C40FA64694184041049A0E
:100C90000546D20F224364466400D31A8D41714643
:100CA000002901D1A84202D928461A46641C1043E3
:100CB0000122002800D0164361020020079B8919F9
:100CC00004465C410223002C02DB491813466441B0
:100CD000089DCE0A2D145D194B056705E10A2C0508
:100CE0000D1908993E43C9076940002B08D093406D
:100CF00006D30022761C5141002B01D176087600E4
:100D00001C4A002D43DB154241D0AA433FD0304658
:100D10000BB0F0BD06180D464D41174C7642AC4164
:100D20001AD395181C465C41134A6D42A24113D355
:100D3000012252054C00D4420AD15C00D4420BD0AF
:100D40004B4002D592021143E2E749004908DFE730
:100D50005940C90FC90718E000200849D8E70548DD
:100D600001420DD10342F7D0F2E700000000FF0777
:100D70008C6C00000000F07F0000E0FF0000F87FB6
:100D8000114859400143C01241400020C0E70123EF
:100D9000089A9B069A4205DC032252078918C90F5C
:100DA000C907B5E7052252078918074A1143D2122D
:100DB0005140ADE770B515461C4602460B46284625
:100DC0002146FFF7DFFD70BDFFFFFF7F30B5034613
:100DD000CA02400D1043164D164C0A1502D020438E
:100DE000002A06DBAA1A002A12DDD040FF2A0BDCFB
:100DF00030BD5205520D01D140004008AA1A07D457
:100E0000D0404042FF2A01DD002030BD0028FCDD3B
:100E10004A00002B01D0012000E000201018012220
:100E20005205D042F0D8C817C043604030BD000022
:100E30001E040000000000801F22030C02D10F22BC
:100E4000000402D0030E03D004E0002001467047E6
:100E50000002083A030F01D10001121F830F01D1D4
:100E60008000921E002801DB4000521E120551181E
:100E70004205C012411810467047C10FC90700D083
:100E80004042012292071143D6E701218907D3E7A7
:100E9000F0B58B4C0F09254689B0BD437BD01D09A9
:100EA0002646AE43FAD00E465E402740F60F3E433C
:100EB000254071D024012142FBD0FF24AD19A404A8
:100EC0002D1B039501252D05DB02DB0AC9022B43EF
:100ED000C90A29431E010901040F130F050121430B
:100EE0001701880B820391432D098C46A90B1E43E1
:100EF0008A039543B30B9A0396433F09BA0B9403B5
:100F0000A74302962E467E430497B6464E19D7193C
:100F10000C460196544305977E43371B7646BF1B0C
:100F20003601B646BE0B361900967646BC04371914
:100F3000009C01D3641C00946400002F01D00126A2
:100F40003443029E049F754366467E4304967600B2
:100F500034196E0034190094029C019E1C196643DA
:100F6000751BAE46069465464519059C05956C4370
:100F7000594375460891691A0191049E01465143EF
:100F8000A41B0491611A009C0791E10605D0610938
:100F90000122114302E072E06EE06109089D002722
:100FA0002C0A2D066918049D7C412A0A2D06691811
:100FB000019D6241AC0DAD026D185441079A910D2F
:100FC000920255196141029A644658435443069B64
:100FD000059A5A43121A131B9A0E9B015B187A4109
:100FE000010B0005C3185141220A200644195A4139
:100FF0009A4200D2491C01204002814203D31523AA
:101000000226F64302E014230326F6432020C51AE5
:10101000A9401746AF40DA400A4320460399D8401A
:101020000914731819055118039A3843D20751400F
:10103000AC4009D00122944006D30022401C51410B
:10104000002C01D1400840001E4A934212D30122D5
:1010500003989206904207DB0520400709181A48BA
:101060000143C012414004E0032040070818C10FAB
:10107000C907002009B0F0BD0020F107FAE7051804
:101080000C464C4111486D42A04115D394181A46A4
:101090005A410E48644290410ED301204A00400557
:1010A000824209D35A00824206D35940C90F084AE6
:1010B000C90700201143DDE700200649DAE70000F8
:1010C0000000FF07FE070000FFFFFF7F0000E0FFBA
:1010D0000000F07F0000F87F0121C90501234118BD
:1010E00042001B06D3185B0E0AD0C1100722D2069D
:1010F000891840075242D14201D5520089187047E1
:10110000090208D50146002A03D0C10FC9070020F3
:10111000704710467047420202D0002002497047D3
:10112000072109050143F4E70000F87FF0B5FF252A
:101130002D04C609C209FF2704462E400137CB09FA
:101140003E4348402A402B400746002A6BD0002BE4
:1011500069D0AA4267D0AB4265D0002800DA324697
:101160000125ED0529432C4309022002090AD21A60
:101170004B0C7F24E31A434C000A7C44E35C7D243F
:101180002404121914145B00A218884201D3521CC3
:1011900000E0400049420C465C4324115C43DB0103
:1011A0006415E318040A5C43C502200D0C46444351
:1011B0006419250A5D432303EC0C0D4665430003C7
:1011C0000019EB184C42A34201D35B18401CD40514
:1011D0002018002B07D05B00C91804D3401C00293D
:1011E00001D1400840003F2189048A4209D3002AE6
:1011F00008DC1106090F04D0032149074018C00F6D
:10120000C007F0BD01224100120689187F22520654
:101210009142F6D205214907C84201D59010F0BD90
:10122000FF20C005F0BD002F00DA32461648AA4262
:1012300007D2AB4205D21902090E17D0F80FC0072A
:10124000F0BDFF2563002D06AB42F9D84900A94245
:10125000F6D8AB4201D1A942F2D0A94201D1002176
:1012600001E061004908D0050843F0BD1102090EF4
:10127000FBD0FF200243D005F0BD0A4601461046D0
:1012800054E700007E6500000000C07F10B50146F5
:101290009E240002CA15A307002A02D01843002A80
:1012A00004DBA21A002A0CDDD04010BD1206120E7B
:1012B00001D140004008A21A03D4D0404042002887
:1012C000F3DDFF2248001206904201D9002010BD34
:1012D000C817C043584010BD0102C21504D00123F5
:1012E000DB071943002A0ADB9E239A1A02D4084618
:1012F000D0407047FF2241001206914201D90020E0
:101300007047C017C04370471F22030C02D10F2241
:1013100000041CD0030E01D10002083A030F01D1D2
:101320000001121F830F01D18000921E002801DBF3
:101330004000521ED2055118021251181922904035
:1013400004D3491C002801D14908490008467047C8
:10135000C10FC90700D04042012292071143D3E7D1
:1013600001218907D0E7000000487047E80200200B
:10137000704770477047704738B504460A460020EA
:101380006946C046C046002805D00246204600995E
:1013900000F088F8012038BD10B5012000F09CF85D
:1013A00010BDF8B5C046C046054600200C461020CA
:1013B000C0460646A819A0420DD93246694600200B
:1013C000C046C046070001D100F086F80098A04250
:1013D00000D00546C419FFF7C7FFF61D0746056094
:1013E000F008C0004619284600F008F8B44204D0BE
:1013F00031463868A21B00F055F8F8BD00210160A5
:10140000416080607047102070470000F8B5224CA2
:101410004E00069DA6420AD8A64201D1002806D158
:101420005E00A64203D8A6420AD1002A08D00D24A5
:10143000240425422CD02946002000F053F8F8BDA2
:101440000C461C430CD4994202D0EFF30080F8BD47
:10145000904202D0EFF30080F8BDEFF30080F8BDBA
:1014600009242407E5008B4206D0EFF30080A04357
:10147000591A06D2284304E0101A05D3EFF300806E
:10148000A04380F30088F8BDEFF30080A043F1E7AC
:10149000009500F03FF8F8BD0000E0FF00487047FD
:1014A000E002002010B50346406801E003464068B2
:1014B000002801D08842F9D31868C3188B4206D09F
:1014C000CB1CD808C000001D411A521A0146081D45
:1014D0000A60FEF7B4FE10BD10B500F053F800F03E
:1014E0004BF810BDC80212D54803400F002804D0A5
:1014F000C803C043012188407047EFF3008000011A
:10150000000903210907084380F300887047002081
:101510007047000010B500200249029A00F05AF806
:1015200010BD00000000F87F70477546FFF7B6FF5A
:10153000AE46050069465346C008C000854618B04F
:1015400020B5FEF739FE60BC00274908B6460026E4
:10155000C0C5C0C5C0C5C0C5C0C5C0C5C0C5C0C563
:10156000403D49008D46704710B50446C046C04610
:101570002046FEF7F4FD10BD10B5002801D000F0A4
:1015800059F810BD10B5012805D0002103A000F0C6
:1015900057F8012010BD09A1F8E700005349475250
:1015A000544D454D3A204F7574206F662068656133
:1015B00070206D656D6F7279000000003A204865FB
:1015C0006170206D656D6F727920636F72727570D6
:1015D0007465640010B50C461107090F092904D081
:1015E0000A290AD008290CD104E011460820FFF787
:1015F00079FF06E0510606D501E0510601D501202C
:10160000C007214610BDD10607D501010909CC0844
:101610004907000E0006044309E0410F2002490774
:10162000000A0143200E00061D22D1410143084655
:10163000E7E7000001491820ABBEFEE726000200E4
:1016400070B505460C460A2000E06D1C00F012F84B
:10165000002D06D028780028F7D102E0641C00F0A5
:1016600009F8002C02D020780028F7D10A2000F0D9
:1016700001F870BD08B5694608700320ABBE08BD0F
:1016800070B5044600252068806804210840800861
:1016900000282FD020688068084004280BD12068DB
:1016A000806802210840002805D120688068102148
:1016B00008432168886001F0E9F9054614E001F06B
:1016C000E5F9401B02280FD92068806804210840F2
:1016D000002809D0A06B10210843A063E06B012112
:1016E0000843E063012070BD206880680421084041
:1016F0000028E4D10020F6E770B5044600252068F4
:1017000080688007800F01280ED120680068C0071C
:10171000C00F002806D12068C0680121C903084015
:10172000884201D1012000E0002000283DD020683F
:10173000806805210840012800D100E00020002831
:101740000AD000BF206880680221084321688860B1
:1017500003202168086009E0A06B10210843A06302
:10176000E06B01210843E063012070BD01F08EF9B8
:10177000054614E001F08AF9401B02280FD92068C1
:101780008068C007C00F002809D0A06B1021084353
:10179000A063E06B01210843E0630120E5E72068D6
:1017A0008068C007C00F0028E4D10020DDE70000FA
:1017B00038B5044600250020009020688068800726
:1017C000800F01280ED120680068C007C00F0028D4
:1017D00006D12068C0680121C9030840884201D1B0
:1017E000012000E0002000284CD1206880682649B4
:1017F0000840002801D1012000E00020002809D184
:10180000A06B10210843A063E06B01210843E06353
:10181000012038BD20688068012108432168886064
:101820001A491B480068FEF712FE009002E000987B
:10183000401E009000980028F9D101F027F90546D4
:1018400017E001F023F9401B022812D92068006834
:10185000C007C00F012148404840002809D1A06BB3
:1018600010210843A063E06B01210843E0630120DD
:10187000CFE720680068C007C00F012148404840FA
:101880000028DED00020C4E71700008040420F008F
:1018900080000020F0B587B004460D4600F000FA45
:1018A000002803D00020C04307B0F0BD7D277F0192
:1018B0003846FEF793FC061E01D1401EF4E760682F
:1018C000A0602069606100F041FAFF205A23FA22EB
:1018D0007A210090304603F031FF304603F066FF76
:1018E000FF2003F063FB0020FF218D4B8DA20091B0
:1018F00001902D2103F0E4FE0020FF21884B8BA2F4
:1019000000910190412103F0DBFE0020FF21844B78
:1019100087A200910190552103F0D2FE0020FF2103
:101920007F4B84A200910190692103F0C9FE002041
:10193000012100907A233C22019102901721104648
:1019400003F038FD0020FF21754B7CA2009101902F
:101950000321172003F0B4FE0020FF21704B7AA270
:10196000009101901721552003F0AAFE00200121CB
:1019700003460222009101901721642003F008FC25
:101980000020FF21664B71A2009101901721642075
:1019900003F096FE6068FFF79FFB05910490FF201F
:1019A000002102225E4B00930192029103902D21AF
:1019B0004B20059B049A03F083FDFF2000210222A7
:1019C000574B0093019202910390E968A868024680
:1019D0000B460591049041214B2003F071FDFF203F
:1019E000002102224E4B0093019202910390E9697B
:1019F000A86902460B460591049055214B2003F03F
:101A00005FFDFF2000210222454B009301920291CD
:101A10000390E96AA86A02460B4605910490692181
:101A20004B2003F04DFD0020012100907A239622E7
:101A3000019102900146104603F0BCFC0020FF21FA
:101A4000374B43A20091019003219B2003F038FE05
:101A50000020FF21324B41A2009101901721B420B8
:101A600003F02EFE2069FFF737FB05910490FF205D
:101A7000002102222A4B00930192029103902B2114
:101A8000AA20059B049A03F01BFDFF2000210222DF
:101A9000234B0093019202910390E96BA86B0246DD
:101AA0000B46059104904121AA2003F009FDFF2077
:101AB000002102221A4B0093019202910390E96CDB
:101AC000A86C02460B46059104905521AA2003F00C
:101AD000F7FCFF2000210222114B0093019202919A
:101AE0000390E96DA86D02460B46059104906921AB
:101AF000AA2003F0E5FC0020012100902823FA220F
:101B000001910290194603F055FC304600F0EAF8C6
:101B10003046FEF794FB002600F0AEF80020C3E646
:101B20008400002041637475000000004D696E0060
:101B30004D617800456361727400000054656D70FA
:101B400065726174757265005B000000435D0000A2
:101B500048756D6964697465000000005B255D006F
:101B600070B505460C460022012189020920C006F5
:101B700000F085FF284602F07DFB0120206070BD4B
:101B8000FEB504460027002001900621204603F000
:101B900041F80546FFF7E4FB07463846FFF79CFB94
:101BA00085B2164A1649284600F034F80190022002
:101BB00000900198FFF790FA0546124A124B04F084
:101BC00017FE08D30198FFF787FA054600220F4B4E
:101BD00004F0DCFD07D2012291030D4800F04FFF15
:101BE0000120009007E0002201218903084800F04D
:101BF00046FF002000900098FEBD0000EC1300009E
:101C00005046000033333333333313400000104069
:101C100000040048F7B588B00C46154607942E46D8
:101C20000898FFF732F9114A114B01910090FFF724
:101C30002FF900220F4B03910290FEF7A3FE0591AE
:101C40000490FEF7B5FC06903046FFF789FB05903F
:101C5000079CA019FFF784FB0490069904F042FE4C
:101C600007460599FFF762FA0BB0F0BD6666666637
:101C700066660A4000FEAF4010B50022042109202C
:101C8000C00600F0FCFE002210210920C00600F072
:101C9000F6FE002202210920C00600F0F0FE10BD71
:101CA00010B5002204210920C00600F0E8FE002241
:101CB00010210920C00600F0E2FE012202210920C5
:101CC000C00600F0DCFE002010BD000001B57D2341
:101CD000DB0001226946024802F0E0F808BD00007E
:101CE00044010020F8B505461024FA200090242075
:101CF00000F09AF800260DE0002707E03146614326
:101D0000C919685C00F0A8F8781C87B2A742F5DB17
:101D1000701C86B200988642EEDB262000F084F824
:101D200000260DE0002707E031466143C919685CD1
:101D300000F092F8781C87B2A742F5DB701C86B2DF
:101D400000988642EEDB00F0D5F8F8BD10B500F043
:101D50004EF800F039F8122000F066F800F034F880
:101D6000012000F061F8F92000F076F8002000F082
:101D700073F8002000F070F8112000F055F80320EF
:101D800000F06AF8F92379220021084600F090F863
:101D90000021084600F078F83C2000F045F80520C6
:101DA00000F05AF8212000F03FF8002000F054F82D
:101DB000802000F051F8182000F036F8802000F064
:101DC0004BF800F001F810BD10B50AE00821092019
:101DD000C00600F04BFE002800D103E00A2000F00E
:101DE00031FDF3E700BF0A2000F02CFD10BD10B557
:101DF000012202210920C00600F041FE142000F05B
:101E000021FD002202210920C00600F038FE022038
:101E100000F018FD012202210920C00600F02FFE6B
:101E2000142000F00FFD10BD10B50446002204215F
:101E30000920C00600F023FE002210210920C00660
:101E400000F01DFE2046FFF741FF0122102109206E
:101E5000C00600F014FE10BD10B504460122042196
:101E60000920C00600F00BFE002210210920C00648
:101E700000F005FE2046FFF729FF0122102109206E
:101E8000C00600F0FCFD10BD70B505460C464E20A6
:101E9000FFF7CAFFE8B2FFF7DFFF4F20FFF7C4FFED
:101EA000E0B2FFF7D9FF2104080EFFF7D5FF70BDA0
:101EB000F8B506460C4617461D464420FFF7B4FF0A
:101EC0007105080EFFF7C8FF7905080EFFF7C4FF7C
:101ED0004520FFF7A9FFE0B2FFF7BEFF2104080E7F
:101EE000FFF7BAFFE8B2FFF7B7FF2904080EFFF7C4
:101EF000B3FFF8BD10B52220FFF796FFF720FFF7DC
:101F0000ABFF2020FFF790FFFFF75EFF10BD000042
:101F100010B52021064800F0A9FD012801D105498E
:101F20000870072001F0C6F820200349486110BD61
:101F3000000400486900002000040140F7B58CB09F
:101F40000C4617460C9804F0EBFB00287ED0224686
:101F50000C3221460C9804F0D5FB002877D020687D
:101F6000FFF7F6F95A490490FFF7E0F86060E0687F
:101F7000FFF7EEF956490490FFF7D8F82061F96AA7
:101F8000B86A0B910A90A168606804F003FD09909B
:101F90000998FFF7A1F8039102900B9B0A9A04F0AD
:101FA00027FC10D90122D2070B9951400A980391BE
:101FB00002900998FFF790F801910090039B029A14
:101FC00004F0E4FB02D8012042490870FE6DBD6DAB
:101FD0006169206904F0DEFC08900898FFF77CF83E
:101FE0002A4633460391029004F002FC0ED90120E8
:101FF000C0077040029503900898FFF76DF80191B3
:102000000090039B029A04F0C1FB02D801203149E1
:1020100008706068FFF760F803910290F968B8688B
:1020200002460B46019100900399029804F0AEFB22
:1020300012D36068FFF750F803910290F969B8690C
:1020400002460B4601910090039901E03EE03BE01F
:10205000029804F0CDFB01D2012000E0002007909F
:102060002069FFF739F803910290F96BB86B0246CB
:102070000B46019100900399029804F087FB0FD35F
:102080002069FFF729F803910290F96CB86C0246B9
:102090000B46019100900399029804F0A9FB01D22C
:1020A000012000E0002006900220059007980028FB
:1020B00002D10698002802D00120059001E00020FE
:1020C000059005980FB0F0BD207EFBE7207EF9E774
:1020D0000000C8426800002010B501F0E9FF0121AE
:1020E000084601F00DF801F00BFE0022082102481D
:1020F00000F0C5FC10BD0000000400487FB582B0B0
:10210000064601220821184800F0B9FC7D20C000D5
:1021100000F098FB154805782846FEF75FF804465E
:102120003A21019129462046FEF78DF910480078A2
:1021300020706846007B607069460979A1700822AA
:1021400004A9E01CFEF722F90A490978E1722A463F
:102150007D23DB002146304602F0A2FA2046FEF73E
:102160006EF806B070BD0000000400488E0000202C
:102170008C0000208D00002072B600BFFEE770B515
:1021800006460D4614462068002802D02068401EEE
:1021900020602068002805D12146284602F02AFD4B
:1021A000012070BD0020FCE7F8B50446002500269C
:1021B000002700BF3420005D012801D10220F8BDB6
:1021C00001213420015500BF206880688007800FFE
:1021D00001280CD1206800680840002805D120683B
:1021E000C068C9030840884201D1012000E00020F6
:1021F000002849D1A06BFF21013188430221084307
:10220000A0632068C0688707BF0F2068C068800887
:1022100080002168C860206880680121C9070843E0
:102220002168886000F032FC064619E000F02EFCC0
:10223000801B022814D920688068C00FC0070121C4
:10224000C90788420CD1A06B0221884310210843A2
:10225000A06300BF00213420015500BF0120AEE77C
:1022600020688068C00FC0070121C9078842DDD0FF
:102270002068C06838432168C860A06B0221884389
:1022800001210843A06304E0A06B20210843A06360
:10229000012500BF00213420015500BF28468EE7EC
:1022A000F8B504460D4600260020009001210907DC
:1022B000E06A884215D0E06A012812D0E06A02285C
:1022C0000FD0E06A03280CD0E06A042809D0E06A45
:1022D000052806D0E06A062803D0E06A072800D067
:1022E00000BF00BF3420005D012801D10220F8BDED
:1022F00001213420015500BF206880680421084076
:10230000800800287ED14D496868884264D02068E2
:10231000806A2A780121914008432168886201215E
:102320000907E06A884229D0E06A012826D0E06ADD
:10233000022823D0E06A032820D0E06A04281DD0B8
:10234000E06A05281AD0E06A062817D0E06A072854
:1023500014D0A868216849694907490F88420DD0FF
:1023600020684069C008C000216848612068406951
:10237000297A4907490F08432168486128681028CD
:1023800005D02868112802D0286812284FD12C487F
:1023900080682968102901D1C90407E0296811293A
:1023A00002D10121890501E00121090608432449E0
:1023B0008860286810283AD1224923480068FEF72F
:1023C00046F80A214843009002E00098401E009021
:1023D00000980028F9D12AE02068816A2A78012033
:1023E00090408143206881622868102805D02868C1
:1023F000112802D02868122819D11148806829684C
:10240000102900E00EE001D1C90407E02968112974
:1024100002D10121890501E001210906884308490B
:10242000886004E0A06B20210843A063012600BF60
:1024300000213420015500BF304658E7011000004C
:102440000027014040420F0080000020014608683C
:10245000006C704770B5044600260025002C01D1A1
:10246000012070BDA06B002806D1E063002134205C
:102470000155204600F0D0F8A06B1021084000283C
:102480007ED1002EFCD1206880680421084080089D
:102490000028F5D1A06B8901884302210843A0637D
:1024A000206880688007800F01280DD120680068AF
:1024B000C007C00F002805D12068C0688903084004
:1024C000884201D1012000E0002000280FD12068BF
:1024D000C06818218843A16808432168C860206843
:1024E00000698000800861680843216808612068ED
:1024F000C068474908402168C860207E8003617E2B
:10250000C9030843A17E49030843A16A012902D0F7
:102510000121090300E000210843E1680843216923
:10252000022901D1042100E0002108432421095D92
:10253000490008430543E07E01280ED1A07E002813
:1025400003D101200004054307E0A06B20210843CC
:10255000A063E06B01210843E063FF21C231E06921
:10256000884203D0216AE069084305432068C068B7
:1025700028432168C86001210907E06A884200E019
:102580003EE014D0E06A012811D0E06A02280ED0A3
:10259000E06A03280BD0E06A042808D0E06A052826
:1025A00005D0E06A062802D0E06A07280DD120682D
:1025B0004069C008C0002168486120684069A18D59
:1025C0004907490F0843216848612068C0681149DC
:1025D0000840A84208D10020E063A06B0221884394
:1025E00001210843A06310E0A06B02218843102161
:1025F0000843A063E06B01210843E063012604E087
:10260000A06B10210843A0630126304629E7000093
:102610001902FEFFE7FF3F8310B586B00446142180
:1026200001A8FDF712FF17492068884227D100BF93
:10263000154880694915084313498861084680692F
:1026400049150840009000BF00BF00BF0E48406918
:10265000090208430C4948610846406901214904C0
:102660000840009000BF00BF40200190032002906E
:102670000020039001A90920C00600F0F9F806B077
:1026800010BD00000024014000100240F8B50446CF
:102690000D466069082801D1082611E02068C0684D
:1026A000C007C00F00280AD0A06B20210843A063F8
:1026B00000BF00213420015500BF0120F8BD0C26C9
:1026C00000F0E4F9074619E0681C002816D0002D38
:1026D00004D000F0DBF9C01BA8420FD920680068C5
:1026E000304000280AD1A06B04210843A06300BF3A
:1026F00000213420015500BF0320DFE72068006877
:1027000030400028E0D0A06B012149020843A063BB
:102710002068C068032189020840002825D1A07ED6
:10272000002822D1206800680821084008281CD110
:102730002068806804210840800800280DD12068A6
:1027400040680C21884321684860A06BFF2101315B
:10275000884301210843A06307E0A06B20210843C0
:10276000A063E06B01210843E063207E002802D1D2
:102770000C20216808600020A0E7000070B5044626
:1027800000252068806804210840800800282BD19B
:1027900000BF3420005D012801D1022070BD01215D
:1027A0003420015500BF607E012803D02046FEF78B
:1027B000FFFF0546002D18D1A06B0D490840FF21F1
:1027C00001310843A0630020E06300BF00213420F2
:1027D000015500BF1C202168086020688068042122
:1027E00008432168886000E002252846D6E70000FB
:1027F000FEF1FFFF70B50446002500BF3420005DE8
:10280000012801D1022070BD01213420015500BFF3
:102810002046FEF735FF0546002D0CD12046FEF779
:102820006BFF0546002D06D1A06BFF2101318843C7
:1028300001210843A06300BF00213420015500BFDF
:102840002846E0E770B5044600F020F90646254624
:10285000681C002802D0054800782D1800BF00F041
:1028600015F9801BA842FAD370BD00007C0000203F
:1028700078B503460A460021E4E001268E4014683C
:102880003440002C7ED01579AD07AD0F012D04D05A
:102890001579AD07AD0F022D18D198684E000325AC
:1028A000B5400646AE4330464E00D568B540284395
:1028B0009860586801258D400646AE433046102684
:1028C000556835402D098D40284358601579AD076E
:1028D000AD0F032D0BD0D8684E000325B54006463A
:1028E000AE4330464E009568B5402843D860157910
:1028F000AD07AD0F022D15D1CD08AE001D46203518
:10290000A8594D07EE0E0F25B5400646AE4330469A
:102910004E07F60E1569B5402843CD08AD001E469A
:102920002036705118684E000325B5400646AE4368
:1029300030461579AD07AD0F4E00B54028431860FD
:102940000326360455683540002D7AD000BF404D2F
:10295000AD69012635433E4EB5613546AD69ED079B
:10296000ED0F009500BF00BF3A4D8E08B600A85984
:102970008D072E0F0F25B5400646AE43304609257C
:10298000ED0600E05DE0AB4201D1002514E0324DE0
:10299000AB4201D101250FE0304DAB4201D1022500
:1029A0000AE02F4DAB4201D1032505E02D4DAB428E
:1029B00001D1042500E005258E07360FB5402843D8
:1029C000244D8E08B600A851274DA8680546A5439A
:1029D00028460126360555683540002D02D00546AB
:1029E00025432846204DA860E8680546A5432846AB
:1029F0000126760555683540002D02D00546254351
:102A00002846194DE86068680546A5432846012612
:102A1000760455683540002D02D0054625432846EA
:102A2000114D686028680546A543284601263604EE
:102A300055683540002D02D00546254328460A4DED
:102A40002860491C1568CD40002D00D015E778BDE1
:102A5000001002400800014000040048000800483F
:102A6000000C0048001000480004014002461369B1
:102A70000B40002B01D0012000E000207047002A0D
:102A800001D0816100E08162704700000148006868
:102A9000704700007400002002464120805C20281E
:102AA0002FD100BF4020805C012801D10220704757
:102AB00001234020835400BF242341208354106805
:102AC000006840084000136818601068006801231F
:102AD0001B03984313681860106800680843136864
:102AE00018601068006801231843136818602023D9
:102AF0004120835400BF00234020835400BF0020A6
:102B0000D5E70220D3E710B502460B464120805C92
:102B100020282ED100BF4020805C012801D1022056
:102B200010BD01244020845400BF2424412084543B
:102B30001068006840084000146820601068016850
:102B40000F2424020846A0430146180201431068DE
:102B5000016010680068012420431468206020246C
:102B60004120845400BF00244020845400BF002032
:102B7000D6E70220D4E7000010B50446002C01D1AE
:102B8000012010BD4120005D002805D1002140201A
:102B90000155204600F0E6F9242141200155206826
:102BA000006840084000216808600F21090660683D
:102BB000884321680861206880680121C90388432F
:102BC00021688860E068012806D10121C903A06856
:102BD00008432168886005E021218902A068084334
:102BE00021688860E068022807D1206840680121D8
:102BF000C90208432168486006E020684068012156
:102C0000C902884321684860206840681449084325
:102C1000216848602068C0680121C9038843216891
:102C2000C860616920690843A169090208432168F5
:102C3000C860216AE069084321680860206800686C
:102C400001210843216808600020606420214120A0
:102C5000015500202063002142200155002090E70B
:102C600000800002FFB581B0044616461F46412091
:102C7000005D202877D100BF4020005D012802D1EF
:102C8000022005B0F0BD01214020015500BFFFF733
:102C9000FDFE054619230122D1032046009501F0CF
:102CA0005BFE002801D00120EBE7222141200155E5
:102CB00010214220015500206064666267856063D0
:102CC000608DFF280BD9012020853F480090208D82
:102CD000C2B20B052046029901F020FE0BE0608D88
:102CE000208539480090208DC2B201235B06204622
:102CF000029901F013FE43E02A4620460A9901F0AA
:102D00006BFE002801D00120BBE72068406A616AA1
:102D10000870606A401C6062208D401E2085608DB6
:102D2000401E6085608D00282AD0208D002827D184
:102D300000950022802120460A9B01F00DFE00280C
:102D400001D001209DE7608DFF280DD9FF2020854F
:102D500000200090208DC2B201231B06204602995C
:102D600001F0DCFD0CE02CE0608D2085002000905F
:102D7000208DC2B201235B062046029901F0CEFDF0
:102D8000608D0028B8D12A4620460A9901F092FEAB
:102D9000002801D0012074E720202168C861206844
:102DA00040680A49084021684860202141200155B7
:102DB00000214220015500BF4020015500BF0020E6
:102DC0005FE702205DE700000024008000E800FECD
:102DD000FFB581B0044617464120005D20287DD113
:102DE00000BF4020005D012802D1022005B0F0BDE7
:102DF00001214020015500BFFFF748FE0546192379
:102E00000122D1032046009501F0A6FD002801D043
:102E10000120EBE7212141200155102142200155DD
:102E20000020606467620498608500206063608DA4
:102E3000FF2803D9FF2020850E0503E0608D208543
:102E400001267606208D002817D0606A0078216858
:102E50008862606A401C6062608D401E6085208DC3
:102E6000401E20853D480090208D401CC2B2334654
:102E70002046029901F052FD08E038480090208D6C
:102E8000C2B233462046029901F048FD43E02A468B
:102E900020460A9901F041FE002801D00120A5E753
:102EA000606A007821688862606A401C6062608D98
:102EB000401E6085208D401E2085608D00282AD010
:102EC000208D002827D100950022802120460A9BD2
:102ED00001F042FD002802D0012087E73CE0608D30
:102EE000FF280CD9FF20208500200090208DC2B241
:102EF00001231B062046029901F010FD0BE0608DB6
:102F0000208500200090208DC2B201235B06204660
:102F1000029901F003FD608D0028B8D12A462046B1
:102F20000A9901F0C7FD002801D001205EE72020AA
:102F30002168C861206840680949084021684860E4
:102F400020214120015500214220015500BF402091
:102F5000015500BF002049E7022047E7002000801C
:102F600000E800FE10B586B00446142101A8FDF764
:102F70006CFA1A49206888422ED100BF184840696F
:102F80000121890408431649486108464069012126
:102F900089040840009000BF00BF03208002019018
:102FA000122002900020039003200490012005903D
:102FB00001A90C48FFF75CFC00BF0948C06901216A
:102FC000890508430649C8610846C0690121890589
:102FD0000840009000BF00BF06B010BD0058004080
:102FE00000100240000400480348006803490978C3
:102FF0004018014908607047740000207C000020E0
:1030000010B50648006810210843044908600320F1
:1030100000F006F800F02EF8002010BD002002405D
:1030200070B50446104801787D20C000FDF70FFA06
:10303000064631460D480068FDF709FA054601F0DD
:103040001BF8002801D0012070BD042C07D20022FB
:103050002146501E00F04AF80548046001E00120B6
:10306000F2E70020F0E700007C0000208000002054
:103070007800002008B500BF0D4880690121084391
:103080000B49886108468069C007C00F009000BFE7
:1030900000BF00BF0846C069090408430449C8616D
:1030A0000846C06909040840009000BF00BF08BD81
:1030B000001002400146002905DBCB06DB0E012291
:1030C0009A40024B1A6000BF7047000080E200E0A7
:1030D0000146002905DBCB06DB0E01229A40024B9C
:1030E0001A6000BF7047000000E100E070B50446C0
:1030F0000D4616462946204603F07AF970BD0000B9
:1031000010B5024600200E4B186880088000034668
:10311000134318460A4B18600A4B1B6904242343C7
:10312000084C2361012901D130BF02E040BF20BF1C
:1031300020BF044B1B690424A343024C236110BD30
:103140000070004000ED00E0F8B5044600260025C0
:10315000012109042068084088427AD1002760488C
:10316000C0690903084000280DD100BF5C48C06950
:1031700008435B49C8610846C069090408400090DB
:1031800000BF00BF012757480068FF2101310840F8
:10319000002816D153480068084352490860FFF7D9
:1031A00075FC064606E0FFF771FC801B642801D918
:1031B0000320F8BD4B480068FF210131084000287A
:1031C000F1D04748006A0321090208400546002D56
:1031D0002DD060680840A84229D04148006A884341
:1031E00005463F48006A0121090408433C4908623A
:1031F0000846006A012109048843394908620846E3
:103200000562E807C00F002811D0FFF73FFC064613
:1032100007E0FFF73BFC801B3349884201D90320BC
:10322000C7E72F48006A022108400028F1D02C4847
:10323000006A03210902884361680843284908623B
:10324000012F05D10846C069090488432449C86193
:1032500000BF2078C007C00F002807D02048006BAF
:1032600080088000A16808431D4908630221206886
:103270000840022808D11A48006B0321090488433A
:10328000E168084316490863202120680840202887
:1032900007D11348006B1021884321690843104966
:1032A00008630121490420680840884207D10C487E
:1032B000006B80218843A169084309490863012103
:1032C000890220680840884207D10548006B4021E8
:1032D00088436169084302490863002069E70000E8
:1032E000001002400070004088130000704700008A
:1032F00070B504460D46002C01D1012070BD584820
:103300000068C007C00FA8420ED2554800684008A8
:10331000400028435249086008460068C007C00FB3
:10332000A84201D00120E9E70221206808400228D4
:1033300014D1042120680840042807D14948406876
:1033400007210902884340184649486045484068BB
:10335000F0218843A1680843424948602078C007AB
:10336000C00F002847D06068012808D13D48006898
:10337000012149040840002821D10120BEE76068EE
:10338000022808D137480068012149060840002872
:1033900015D10120B2E76068032808D13148406B9D
:1033A000012149040840002809D10120A6E72D4841
:1033B000006802210840002801D101209EE7294829
:1033C0004068800880006168084326494860FFF72C
:1033D0005DFB064607E0FFF759FB801B2249884248
:1033E00001D903208AE71F4840680C210840616822
:1033F00089008842EFD11A480068C007C00FA84270
:103400000ED9174800684008400028431449086056
:1034100008460068C007C00FA84201D001206DE730
:10342000042120680840042808D10E48406807217C
:1034300009028843E16808430A49486000F03CF803
:1034400008494968F02211400909084A515CC840FE
:10345000074908600320FFF7E3FD00204EE7000066
:10346000002002400010024088130000846A000817
:1034700080000020034800680121C9040843014975
:103480000860704700100240014800687047000063
:103490008000002000B5FFF7F7FF054949680722C3
:1034A00012021140090A034A515CC84000BD0000E5
:1034B00000100240946A0008F8B500250024002797
:1034C0000026002000902B4845680C20284000284A
:1034D00049D0042804D0082805D00C2842D13EE069
:1034E0002548009042E00F2080042840800C2349AA
:1034F0000E5C2048C06A0007000F21490C5C0320C5
:10350000C00328400121090488420AD12246002331
:1035100019481946FCF7B9FE314602F043FF074649
:103520001BE00320C00328400321C90388420AD1BD
:103530002246002313481946FCF7A7FE314602F045
:1035400031FF074609E0224600230B481946FCF7E5
:103550009CFE314602F026FF0746009706E0094828
:10356000009003E000BF0448009000BF00BF009837
:10357000F8BD00000010024000127A00646A0008E2
:10358000746A0008006CDC0210B50648806880216F
:103590000840802804D1FFF7A9FE802001498872E5
:1035A00010BD000000100240FEB50446002C01D101
:1035B0000120FEBD2078C007C00F002872D0FC4853
:1035C00040680C21084004280CD0F94840680840A5
:1035D000082813D1F648406849030840012109042E
:1035E00088420BD1F24800680121490408400028B4
:1035F0006BD06068002868D10120DAE700BF6068FE
:10360000012807D1EA480068012109040843E84974
:10361000086031E0606800280ED1E54800680121AB
:1036200009048843E24908600846006801218904CA
:103630008843DF4908601FE0606805280ED1DC4838
:103640000068012189040843D949086008460068D8
:10365000012109040843D64908600DE0D4480068F8
:10366000012109048843D249086008460068012105
:1036700089048843CE49086000BF6068002812D0E2
:10368000FFF704FA054606E0FFF700FA401B64283E
:1036900001D903208DE7C64800680121490408408C
:1036A0000028F1D011E0FFF7F1F9054606E0FFF739
:1036B000EDF9401B642801D903207AE7BC48006873
:1036C0000121490408400028F1D102212068084066
:1036D000022862D1B64840680C21084000280CD06E
:1036E000B3484068084008281CD1B14840684903E5
:1036F00008400121C903884214D1AD480068022165
:103700000840002804D0E068012801D0012050E7DB
:10371000A7480068F82188432169C9000843A449E3
:1037200008603AE0E068002820D0A1480068012144
:1037300008439F490860FFF7A9F9054606E0FFF72F
:10374000A5F9401B022801D9032032E798480068F8
:10375000022108400028F2D095480068F8218843EB
:103760002169C90008439249086016E09048006842
:10377000400840008E490860FFF788F9054606E0DA
:10378000FFF784F9401B022801D9032011E788487C
:103790000068022108400028F2D108212068084072
:1037A000082831D1E069002817D08148406A0121FA
:1037B00008437F494862FFF769F9054606E0FFF7CD
:1037C00065F9401B022801D90320F2E67848406AD7
:1037D000022108400028F2D016E07548406A4008EF
:1037E000400073494862FFF751F9054606E0FFF7CC
:1037F0004DF9401B022801D90320DAE66C48406AE3
:10380000022108400028F2D1042120680840042841
:1038100072D1002001906648C069890608400028DE
:103820000ED100BF6248C06908436149C8610846BB
:10383000C06909040840009000BF00BF012001904A
:103840005C480068FF2101310840002816D1594822
:103850000068084357490860FFF718F9054606E075
:10386000FFF714F9401B642801D90320A1E6514851
:103870000068FF21013108400028F1D000BFA06896
:10388000012806D14A48006A0121084348490862D4
:103890002AE0A06800280BD14548006A4108490089
:1038A00043480162006A04218843414908621BE0E1
:1038B000A06805280CD13E48006A042108433C4911
:1038C00008620846006A01210843394908620BE092
:1038D0003748006A40084000354908620846006AD7
:1038E000042188433249086200BFA068002813D031
:1038F000FFF7CCF8054608E02BE0FFF7C7F8401BC0
:103900002D49884201D9032053E62948006A022143
:1039100008400028F1D011E0FFF7B8F8054607E0AD
:10392000FFF7B4F8411B2448814201D9032040E647
:103930001F48006A022108400028F1D1019801289F
:1039400006D11B48C0690121090788431849C8618D
:1039500000BF10212068084010285FD1606901284D
:103960002CD11348406B0421084311494863084691
:10397000406B012108430E494863FFF787F805466D
:1039800006E0FFF783F8401B022801D9032010E668
:103990000748406B022108400028F2D00448406BE1
:1039A000F8218843A169C90008430149486335E00B
:1039B0000010024000700040881300006069401D44
:1039C00000280FD18648406B04218843844948630E
:1039D0000846406BF8218843A169C9000843804923
:1039E00048631BE07E48406B042108437C494863E0
:1039F0000846406B400840004863FFF747F805461B
:103A000006E0FFF743F8401B022801D90320D0E568
:103A10007348406B022108400028F2D12021206821
:103A20000840202852D16E4840680C2108400C28DC
:103A30000AD06B4840680840082811D1684840689F
:103A40004903084088420BD16548406B0121490475
:103A5000084000283AD0206A012837D00120A8E584
:103A6000206A002819D05E48406B012109040843F0
:103A70005B494863FFF70AF8054606E0FFF706F8DA
:103A8000401B022801D9032093E55548406B0121D2
:103A9000490408400028F1D018E05148406B01214A
:103AA000090488434E494863FEF7F0FF054606E0E7
:103AB000FEF7ECFF401B022801D9032079E54848B6
:103AC000406B0121490408400028F1D1606A0028B8
:103AD0004FD0434840680C210840082864D0606AF1
:103AE000022847D13E4800680121090688433C4925
:103AF0000860FEF7CBFF054606E0FEF7C7FF401B58
:103B0000022801D9032054E53548006801214906FF
:103B100008400028F1D100BF3148C06A0009000107
:103B2000216B08432E49C862A16AE06A08432C4908
:103B300049687B22D203914308432949486000BF6A
:103B40000846006801210906084325490860FEF778
:103B50009DFF054606E0FEF799FF401B022801D9AC
:103B6000032026E51E480068012149060840002878
:103B7000F1D033E01A48006801210906884318494A
:103B80000860FEF783FF054606E0FEF77FFF401B57
:103B9000022801D903200CE51148006801214906DB
:103BA00008400028F1D119E0606A012800D100E541
:103BB0000B484668C76A0320C0033040A16A8842A8
:103BC0000AD13907090F206B814205D10F208004EB
:103BD0003040E16A884201D00120EAE40020E8E4B4
:103BE0000010024070B504460125002C01D10120CF
:103BF00070BD607F002803D12077204600F052F886
:103C0000022060772068C068102108400009002861
:103C10003FD100BFCA202168486253202168486212
:103C200000BF204601F0D5FE0546002D1DD12068BD
:103C300080681B49084021688860216960680843E2
:103C400061690843216889680843216888602168A0
:103C5000E068086120680069218909040843216837
:103C60000861204601F0DDFE0546002D0CD12068DC
:103C7000006C012189048843216808642068006C75
:103C8000A16908432168086400BFFF2021684862D9
:103C900000E00025002D01D1012060772846A7E72C
:103CA000BFFF8FFF054A0168914205D10449096AA7
:103CB000D2131143024A11627047000000280040ED
:103CC0000010024070B5044600250C482168C86009
:103CD000FEF7DCFE054608E0FEF7D8FE401B7D211E
:103CE000C900884201D9032070BD2068C068202126
:103CF00008400028F0D00020F6E700005DFD01003C
:103D00000348006902210843014908617047000027
:103D100000E000E070B50446002C01D1012070BD28
:103D2000606A002808D1FF2105316068884200D10F
:103D300005E00021E16102E00021216161610021D3
:103D4000A1625D20005D002804D15C200155204661
:103D500000F066F802215D200155206800684021CE
:103D600088432168086007210902E068884201D978
:103D7000002501E001252D030F210902E06888429A
:103D800006D007210902E068884201D00021A16223
:103D9000FF2105316068084021229202A16811408C
:103DA00008430222216911400843217DC907C90F38
:103DB00008431202A169114008433822E169114009
:103DC00008438022216A114008439201A16A1140F0
:103DD000084321680860A069000C042108401022F3
:103DE000616A114008430822616B114008430F22A9
:103DF0001202E168114008430121090329400843E8
:103E0000216848602068C0690121C902884321688F
:103E1000C8610020206601215D20015500207EE759
:103E200010B586B00446142101A8FCF70EFB194911
:103E3000206888422BD100BF174880698914084345
:103E4000154988610846806989140840009000BFC0
:103E500000BF00BF10484069490108430E4948614E
:103E600008464069012149040840009000BF00BF96
:103E7000A0200190022002900020039003200490D3
:103E80000020059001A90920C006FEF7F1FC06B04C
:103E900010BD00000030014000100240FFB583B0AB
:103EA000044616461D460020029000BF5C20005DBF
:103EB000012802D1022007B0F0BD01215C2001558C
:103EC00000BFFEF7E3FD074601965D20005D012877
:103ED00002D002200290C7E00498002801D0002EF2
:103EE00002D101200290BFE003215D200155002096
:103EF00020660498A063A687E6870020206400213E
:103F0000442001534620015300202065E064012134
:103F1000C903A06888420CD120680068402188430A
:103F2000216808602068006801218903084321682E
:103F300008602068006840210840402804D02068BC
:103F4000006808432168086007210902E068884288
:103F500035D96068002802D00198012809D1A06BEA
:103F600000882168C860A06B801CA063E08F401EA1
:103F7000E08720E0206880680221084002280AD1FA
:103F8000A06B00882168C860A06B801CA063E08FD4
:103F9000401EE0870FE0FEF779FDC01BA84202D368
:103FA000681C002801D1002D05D1032002900121B9
:103FB0005D20015558E0E08F0028DBD134E06068D7
:103FC000002802D00198012809D1A06B007821684F
:103FD0000873A06B401CA063E08F401EE08720E0C8
:103FE000206880680221084002280AD1A06B00786E
:103FF00021680873A06B401CA063E08F401EE0871F
:104000000FE0FEF743FDC01BA84202D3681C002846
:1040100001D1002D05D10320029001215D20015521
:1040200022E0E08F0028DBD13A462946204601F005
:1040300059FD002801D020202066A068002809D161
:1040400000BF00902068C0680090206880680090E1
:1040500000BF00BF206E002802D00120029002E0C5
:1040600001215D20015500BF00BF00215C200155EA
:1040700000BF02981FE7000070B504462546681E81
:104080000949884201D901200CE0681E07494861AE
:104090000321081F02F0ACF90020044988610720C1
:1040A0000861002070BD0000FFFFFF0000E000E09D
:1040B00003480069022188430149086170470000F4
:1040C00000E000E07047704730B502460B4600BF85
:1040D0003C20805C012801D1022030BD01253C201C
:1040E000855400BF02253D2085541068446810683F
:1040F000816870252046A843044618680443106868
:104100004460114D1068A8420CD00125AD0710681D
:10411000A84207D00D4D1068A84203D00C4D10687E
:10412000A84207D180250846A843014658680143A4
:104130001068816001253D20855400BF00253C208A
:10414000855400BF0020C8E7002C01400004004057
:104150000040014010B50446002C01D1012010BDE3
:104160003D20005D002805D100213C20015520465E
:1041700000F022F802213D200155211D206801F0A8
:1041800027FE01214620015500BF3E2001553F205A
:104190000155402001554120015500BF00BF42207C
:1041A000015543200155442001554520015500BFCC
:1041B0003D2001550020D2E738B504460D4920685E
:1041C000884215D100BF0C48C069102108430A4934
:1041D000C8610846C06910210840009000BF00BFB8
:1041E000002211461120FEF781FF1120FEF770FF1B
:1041F00038BD0000001000400010024001463D2084
:10420000405C012801D00120704702233D20435427
:104210000868C068012318430B68D860124B08680F
:1042200098420CD001239B070868984207D00F4B97
:104230000868984203D00E4B086898420CD1086871
:1042400080684207520F062A0CD0086800680123D4
:1042500018430B68186005E00868006801231843DC
:104260000B6818600020CFE7002C014000040040DC
:104270000040014001460868C068400840000A68E4
:10428000D06000BF0868006A0A4A104000280BD1BD
:104290000868006A92101040002805D1086800687C
:1042A000400840000A68106000BF01223D204254CF
:1042B0000020704711110000704770B50446206857
:1042C000C5682068066902203040022819D12840BC
:1042D000022816D1401F216808610120207720683C
:1042E00080698007800F002803D02046FFF7E4FF95
:1042F00005E0204600F098F8204600F096F80020EF
:1043000020770420304004281AD12840042817D1EF
:10431000C04321680861022020772068806903215A
:1043200009020840002803D02046FFF7C5FF05E03A
:10433000204600F079F8204600F077F8002020773A
:1043400008203040082819D12840082816D1C04339
:1043500021680861042020772068C0698007800FE9
:10436000002803D02046FFF7A7FF05E0204600F015
:104370005BF8204600F059F80020207710203040EC
:1043800010281AD12840102817D1C043216808618D
:10439000082020772068C06903210902084000280E
:1043A00003D02046FFF788FF05E0204600F03CF8E8
:1043B000204600F03AF800202077F007C00F0028D0
:1043C0000AD0E807C00F002806D00120C0432168AA
:1043D0000861204600F02AF880203040802808D16B
:1043E0002840802805D1C043216808612046FFF796
:1043F00069FE40203040402808D12840402805D19F
:10440000C04321680861204600F022F82020304097
:10441000202808D12840202805D1C0432168086100
:104420002046FFF750FE70BD704770470649097877
:10443000022908D105490968002904D003490968FF
:10444000491E024A11607047000000206C000020E5
:10445000704710B50446002C01D1012010BDA069A1
:10446000002800D000E000BFE06F002805D1002147
:1044700078200155204600F02BF82420E0672068C2
:1044800000684008400021680860606A002802D087
:10449000204601F0FDFC204601F032FE012800D14B
:1044A000DCE7206840680921C90288432168486028
:1044B000206880682A218843216888602068006815
:1044C0000121084321680860204601F059FDC5E735
:1044D00010B586B00446142101A8FBF7B6FF1949B0
:1044E000206888422CD100BF1748806901218903C8
:1044F00008431549886108468069012189030840FD
:10450000009000BF00BF00BF0F4840690901084389
:104510000D4948610846406901218904084000901E
:1045200000BF00BFC0200190022002900020039035
:10453000032004900020059001A90448FEF798F993
:1045400006B010BD003801400010024000040048D1
:10455000FFB585B004460D46174680200059202837
:1045600077D1002D01D0002F02D1012009B0F0BD7C
:1045700001210903A068884208D12069002805D1DB
:10458000E807C00F002801D00120EFE700218420B8
:10459000015122218020015100202066FEF776FA89
:1045A0000290582007535A20075300BF01210903E6
:1045B000A06888420AD12069002803D137495C20CD
:1045C000015324E0FF215C20015320E0A068002873
:1045D0000AD12069002803D1FF215C20015316E095
:1045E0007F215C20015312E001210907A068884265
:1045F0000AD12069002803D17F215C20015306E005
:104600003F215C20015302E000215C20015300BFE8
:104610005C20005B039001210903A068884205D15A
:104620002069002802D10026049502E02E460020D1
:10463000049028E008980090002220212046029B48
:1046400001F056FE002805D02021802001510320D2
:104650008CE721E0002E09D12068808C0399084066
:10466000049908800498801C049006E02068808CDF
:104670000399C9B208403070761C5A20005B401E76
:1046800081B25A2001535A20005B0028D2D1202148
:1046900080200151002069E7022067E7FF01000048
:1046A000FFB583B004460D461746E06F202869D158
:1046B000002D01D0002F02D1012007B0F0BD012153
:1046C0000903A068884208D12069002805D1E807BD
:1046D000C00F002801D00120EFE700218420015104
:1046E0002120E067FEF7D2F90190502007535220B5
:1046F000075301210903A068884205D120690028D9
:1047000002D10026029502E02E460020029023E00E
:1047100006980090002280212046019B01F0E8FDD0
:10472000002803D02020E0670320C6E7002E09D12F
:1047300002980088C005C00D216808850298801C79
:10474000029003E0307821680885761C5220005BD7
:10475000401E81B2522001535220005B0028D7D165
:1047600006980090002240212046019B01F0C0FDE8
:10477000002803D02020E06703209EE72020E06788
:1047800000209AE7022098E700BFFEE701688969E8
:10479000022211404908002902D0002102689162DA
:1047A00001688969C907C90F012251405140002998
:1047B00004D1016889691143026891617047000062
:1047C000F7B584B004460E46002003902068876940
:1047D00000250698029010203840102854D12168F6
:1047E000C8613DE0701C00283AD0FEF74FF90299ED
:1047F000401AB04201D8002E32D120684068012111
:104800008903084001904220005D00902068806983
:1048100049000840C00B00280ED04910019888427A
:104820000AD00098202807D02068406808432168F3
:104830004860FEF72BF902900AE0FEF727F902998B
:10484000401A192804D9202005430120039006E0CE
:10485000206880692021084040090028EDD000BF71
:1048600020688069202108404009002802D103986F
:104870000028B7D00398002802D120202168C86101
:10488000042005430120039020688769FF20013040
:104890003840FF210131884206D101200543000242
:1048A0002168C86101200390012080023840012165
:1048B0008902884206D108200543C0012168C861E9
:1048C0000120039001204002384001214902884222
:1048D00006D10220054300022168C861012003902F
:1048E0000398002815D02046FFF750FF2068406845
:1048F0000949084021684860606C284360642021B1
:104900004120015500214220015500BF40200155A2
:1049100000BF039807B0F0BD00E800FEF8B5069CA4
:104920008D05AD0D1604FF273F043E4035431D4362
:1049300025436D006D08009505686E68650D0127BB
:10494000BF023D40034F3D43AE43009D2E430568EB
:104950006E60F8BDFF63FF03F8B504460D461746C9
:104960001E462CE031462046069AFFF729FF002814
:1049700001D00120F8BD701C002820D0FEF786F879
:104980000699401AB04201D8002E18D120688069DB
:104990002840A84201D1012000E00020B8420ED1F9
:1049A000606C2021084360644120015500214220B1
:1049B000015500BF4020015500BF0120DAE7206803
:1049C00080692840A84201D1012000E00020B842BF
:1049D000C8D00020CEE70000F8B504460E461746C2
:1049E00000255AE03A4631462046FFF7E9FE002806
:1049F00000D0012520688069202108404009002856
:104A00002FD0002D2DD12068806904210840800816
:104A1000002803D0208D002800D000BF20688069C6
:104A2000102108400009002819D010202168C86111
:104A30000420606420202168C861206840681C4907
:104A40000840216848602021412001550021422072
:104A5000015500BF4020015500BF012501E00020A5
:104A60006064FEF713F8C01BB04201D8002E14D1C9
:104A7000002D12D120688069042108408008002898
:104A80000BD1606C2021084360644120015500BFB8
:104A900000214020015500BF0125206880690421C4
:104AA00008408008002801D1002D9BD02846F8BD81
:104AB00000E800FE70B504460D46164624E0324676
:104AC00029462046FFF77CFE002801D0012070BD5A
:104AD000FDF7DCFF801BA84201D8002D14D120680F
:104AE000806920210840400900280DD1606C0843EE
:104AF00060644120015500214220015500BF402043
:104B0000015500BF0120E2E72068806920210840AC
:104B100040090028D3D00020D9E770B504460D46DF
:104B2000164628E0324629462046FFF749FE00286F
:104B300001D0012070BD681C00281CD0FDF7A6FF25
:104B4000801BA84201D8002D15D120688069022160
:104B50000840400800280ED1606C202108436064A2
:104B60004120015500214220015500BF4020015540
:104B700000BF0120DEE7206880690221084040086C
:104B80000028CFD00020D5E710B5022005490876CF
:104B900005490871002008600448FDF705FB00F096
:104BA00007F810BD780200206C0000209000002063
:104BB00000B585B014216846FBF747FC2020009023
:104BC0001120000401900320029069460848FDF777
:104BD0004FFE002202210720FEF788FA0720FEF789
:104BE00077FA002208210248FDF749FF05B000BD11
:104BF0000004004870B505460C46012291020920C8
:104C0000C006FDF73CFF2846FFF7F8FA01202060B8
:104C100070BD0000F8B504460D462046FDF7EAFDDC
:104C20002046FDF7C1FA00900120A8402168886263
:104C30002046FDF7A3FD074600BF08492046FDF7C3
:104C400025FD0028F9D100262046FDF7FFFB06468A
:104C50002046FDF7CFFDB0B2F8BD000010270000E0
:104C60000EB5002000900190029019481949086083
:104C700000204860002117488160C1600121016166
:104C8000042141610021017641768176C176FF21C0
:104C9000C231C16100210162243001700121243838
:104CA0008162FDF7D7FB002801D0FDF765FA0620E9
:104CB000009001200003019000040290694605481D
:104CC000FDF7EEFA002801D0FDF756FA0EBD000000
:104CD000002401409000002000B587B0142102A8F4
:104CE000FBF7B3FB00BF434840690121C9040843F7
:104CF00040494861084640690121C90408400190C3
:104D000000BF00BF00BF3B484069C90008433949A4
:104D1000486108464069012189050840019000BFAB
:104D200000BF00BF33484069491108433149486119
:104D300008464069012149040840019000BF00BFB6
:104D400000BF2C484069490008432A494861084689
:104D50004069012189040840019000BF00BF002282
:104D600049112548FDF78BFE002224490920C00681
:104D7000FDF785FE012210210920C006FDF77FFE08
:104D800000221F491F48FDF77AFE012211021D482B
:104D9000FDF775FE012040030290012003900020E2
:104DA0000490059002A91448FDF762FD13481030E5
:104DB00002900120039000200490059002A9092090
:104DC000C006FDF755FD08200290002003900490D6
:104DD00002A90920C006FDF74BFD0B4802900120F7
:104DE000039000200490059002A90648FDF740FDBD
:104DF00007B000BD00100240000800480604000093
:104E000008400000000400480841000010B51348A5
:104E1000134908601348486000211148816001214E
:104E2000C1600021016141618161C1610162FDF7E1
:104E3000A3FE002801D0FDF79FF900210848FDF7E7
:104E40002BFE002801D0FDF797F900210448FDF75B
:104E50005AFE002801D0FDF78FF910BD0058004020
:104E6000D00000200E09002010B50A480A49086049
:104E7000002048607F2108488160FF21C160002137
:104E8000016141618161FEF7ADFE002801D0FDF7AF
:104E900073F910BD002800402401002010B512480D
:104EA00012490860FF200530486000210F488160EA
:104EB00007210902C160002101614161012149020C
:104EC00081610021C1610162416281620721C16289
:104ED0000021016308214163FEF71CFF002801D077
:104EE000FDF74AF910BD00000030014044010020E8
:104EF0001CB50020009001900E480F490860012069
:104F0000486000210C4881600C49C160002181612A
:104F1000FFF720F9002801D0FDF72EF900200090BE
:104F2000019069460448FFF7CFF8002801D0FDF74B
:104F300023F91CBD00100040A80100203F9C000088
:104F400010B50E480E490860E1204002486000217B
:104F50000B488160C16001610C21416100218161C8
:104F6000C16101620020064948620846FFF771FAF4
:104F7000002801D0FDF700F910BD00000038014005
:104F8000F0010020F8B506460C4615462946304685
:104F9000FCF7F6FD074629462046FCF7E1FD3846BA
:104FA000F8BDFEF7F1FA00BFFEE7000030B530496A
:104FB000C98A022917D1002110E0002208E02C4CF8
:104FC000648A4C43A3182A4D2D68E854531C9AB2A6
:104FD000274B5B8A9342F2DC4A1C91B2244A928AA4
:104FE0008A42EADC42E02249C98A04291DD1002113
:104FF00016E000220EE01E4C648A4C43A318840184
:1050000005012C4385002C430443194D2D68EC54B5
:10501000531C9AB2164B5B8A9342ECDC4A1C91B249
:10502000134A928A8A42E4DC20E01149C98A06299F
:1050300003D00F49C98A072918D1002112E00022A4
:105040000AE00B4C648A4C43A31804010443084D46
:105050002D68EC54531C9AB2054B5B8A9342F0DCEA
:105060004A1C91B2024A928A8A42E8DC30BD0000B2
:1050700094020020FFB583B007461D464348808850
:10508000B84204DB4148C1880498814201DA07B084
:10509000F0BDA9880091C9174A0F00995118C9108D
:1050A000A888C217520F1218D210D200821A01D04B
:1050B000012200E000228A1805992039EB88594323
:1050C000514302912868029940180190002658E047
:1050D000002446E00D98FF2816D12046E117490F1D
:1050E0000918C910C900621A80211141019A127869
:1050F0001140002927D0049A921991B23A1990B21E
:105100000C9A00F059FB1EE02046E117490F0918E0
:10511000C910C900621A80211141019A1278114008
:10512000002908D0049A921991B23A1990B20C9AB7
:1051300000F042FB07E0049A921991B23A1990B23A
:105140000D9A00F039FB2046E117490F0918C910E4
:10515000C900611A072902D10198401C0190601C06
:1051600084B2A888A042B5DCA888C117490F0918E5
:10517000C910C900411A02D00198401C0190701C4E
:1051800086B2E888B042A3DC00BF80E7940200202A
:10519000FFB584B005460E4685488088A84203DBEB
:1051A0008348C088B04201DC08B0F0BD00240698F6
:1051B00007B2069840000321081A00B203900E9827
:1051C000012873D17EE0029463E0012000900298F0
:1051D000301881B2281980B201230190079A00F09B
:1051E00021FA012000900298301881B2281B80B269
:1051F00001230190079A00F015FA01200090301960
:1052000081B20298281A80B201230190079A00F017
:1052100009FA01200090301B81B20298281A80B24E
:1052200001230190079A00F0FDF9012000900298F7
:10523000301A81B2281B80B201230190079A00F036
:10524000F1F9012000900298301A81B2281980B239
:1052500001230190079A00F0E5F901200090301B2E
:1052600081B20298281880B201230190079A00F0B9
:10527000D9F901200090301981B20298281880B223
:1052800001230190079A00F0CDF90298401C00B26A
:1052900002900298B84298DD0398002807DAA0002F
:1052A000801D0399401800B2039009E00EE0E01B56
:1052B00080000A300399401800B20390781E07B2AC
:1052C000601C04B2BC4200DC7DE76FE06CE00120B2
:1052D0000090F01981B2281980B201900D9B079AB5
:1052E00000F0A0F901200090F01981B2281B80B2D3
:1052F00001900D9B079A00F095F90120009030195C
:1053000081B2E81B80B201900D9B079A00F08AF9E8
:1053100001200090301B81B2E81B80B201900D9BF0
:10532000079A00F07FF901200090F01B81B2281B42
:1053300080B201900D9B079A00F074F90120009053
:10534000F01B81B2281980B201900D9B079A00F0E2
:1053500069F901200090301B81B2E81980B20190F8
:105360000D9B079A00F05EF901200090301981B280
:10537000E81980B201900D9B079A00F053F9039849
:10538000002806DAA000801D0399401800B203909F
:1053900008E0E01B80000A300399401800B2039037
:1053A000781E07B2601C04B2BC4290DD00BFFBE671
:1053B00094020020F0B589B004460D4616461F46FB
:1053C0003E488088A0420BDB3C48C088A84207DBEF
:1053D0003A488088B04203DB3848C088B84201DAD6
:1053E00009B0F0BD08940795301B01D4301B00E0D4
:1053F000A01B0690781B002801DC781B00E0E81B4E
:105400000590B44201DA012001E00020C04304907D
:10541000BD4201DA012001E00020C043039005995C
:105420000698401802900020019000BF0198401C8F
:10543000C0B201901098012810D103210198FBF708
:1054400010F800290AD101200090FF220F9B079934
:10545000089800F0E7F80020019007E00120009094
:105460000F9B0E9A0799089800F0DCF8029841000B
:10547000059881420CDB0898B04200D11BE00599E9
:1054800002984018029004990898401880B2089039
:105490000298410006988142C8DC0798B84200D1C2
:1054A00009E006990298401802900399079840185D
:1054B00080B20790BAE700BF00BF91E794020020D6
:1054C000F0B51FB4FFB089B015461E460024002079
:1054D0008790FF21013147A8FAF7B7FFFF2101317B
:1054E00007A8FAF7B2FF47A80690002213462846FD
:1054F000314601F04BF90FD22D2040A9087787984B
:10550000401C00B2879030460121C907484006463A
:1055100088980A3880B2889028463146FBF756FCB6
:1055200005903E4881888898814204DB3B48C188C9
:105530008998814202DA7FB00EB0F0BD93980028BE
:1055400038DD0598FBF799FC2A4633460191009017
:10555000FBF700FA03910290FBF72AF80490939866
:10556000C7B206E02E49049801F0BCF90490781EF9
:10557000C7B2002FF6DC0498FBF788FE05909398DD
:10558000C7B210E00A210598FAF76BFF3031C8B2B4
:1055900007A90855601C04B20A210598FAF761FFB3
:1055A0000590781EC7B2002FECDC2E2007A9085505
:1055B000601C04B228463146FBF708FC059000BF8A
:1055C0000A210598FAF74DFF3031C8B207A90855EE
:1055D000601C04B20A210598FAF743FF059005986C
:1055E0000028EDD10BE0601E07A9095C47AA879847
:1055F00011548798401C00B28790601E04B2002CA2
:10560000F1DC9499959801910090929B069A899962
:10561000889800F055F800BF8DE700009402002044
:1056200000002041FFB507461C4624488088B84248
:1056300004DB2248C1880198814200DAFFBD099845
:10564000012823D100251CE0002613E07819001B57
:1056500003D401988019001B00D50FE0019A92191C
:10566000121B91B27A19121B90B2029A00F0A4F8A0
:10567000701C06B26000401EB042E7DC00BF681C30
:1056800005B26000401EA842DEDC15E0002511E0F6
:1056900000260BE0019A9219521E91B27A19521EFD
:1056A00090B2029A00F088F8701C06B2A642F1DBB4
:1056B000681C05B2A542EBDB00BFBFE794020020E7
:1056C000FFB504460E4617461D46039402961A4837
:1056D0008088A04203DB1848C088B04200DAFFBDD2
:1056E00025E0A9880398081813498988884205DDB0
:1056F0000394E9880298081880B20290E988029819
:1057000008180D49C988884201DD03940296099959
:105710000A98019100903A782B4602990398FFF776
:10572000A9FC7F1CA9880398081880B203903878D8
:105730000028D6D100BFD2E794020020FFB5002098
:10574000194C206000982060204601814281099810
:10575000A0810220E0820C46CE17760F3619F61093
:10576000F6008E1B05D10D46EE17760F7619F61052
:1057700005E00846CE17760F3618F610761C0A4F4D
:105780007E8238468282C38100203C462082002BE4
:1057900001D0B42B03D104488180C28002E00248CA
:1057A0008280C180FFBD0000940200200149086092
:1057B0007047000094020020FEB503460C46834D5E
:1057C000AD889D4203DB814DED88A54200DAFEBD28
:1057D0007E4DED89002D08D05A2D09D0B42D0ED064
:1057E000FF3D0F3D002D1CD114E01846214619E065
:1057F000764D2D892D1B6D1EA8B2194612E0734DF2
:105800002D89ED1A6D1EA8B2704D6D892D1B6D1E70
:10581000A9B207E020466D4D6D89ED1A6D1EA9B243
:1058200000E0D4E700BF694D2D8A002D06D0012D80
:1058300005D0022D09D0032D18D10CE017E0634DDF
:105840002D892D1A6D1EA8B211E0604D6D896D1A5B
:105850006D1EA9B20BE05D4D2D892D1A6D1EA8B2EB
:105860005A4D6D896D1A6D1EA9B200E0AFE700BFF9
:10587000564D2D89854203DB544D6D898D4200DAEA
:10588000A5E7524DED8A022D30D10546C617760F99
:105890007619F7104D4E768A4E43BE1902964B4D3F
:1058A0002E68029D755D0195002A0FD1C5176D0FF9
:1058B0002D18ED10ED00451B80262E410090019D16
:1058C000B543424E3768029EBD550EE0C5176D0FB9
:1058D0002D18ED10ED00461B802535410090019EEE
:1058E00035433A4E3768029EBD556CE0374DED8A20
:1058F000042D35D10546C617B60F7619B710334EAD
:10590000768A4E43BE1902961546D617B60F7619FB
:10591000B610B600961BB2B22C4D2E68029D755D76
:1059200001950546C617B60F7619B610B600861B48
:105930007600C0273741019EBE430196C517AD0FC3
:105940002D18AD10AD00451B6E009501354100903E
:10595000019E3543EEB21D4D2F68029D7E5532E00B
:105960001A4DED8A062D03D0184DED8A072D2AD148
:105970000546C60F76197710144E768A4E43BE1927
:105980000296124D2E68029D755D01950546C60F63
:10599000761976107600861BB600F0273741019EF7
:1059A000BE430196C50F2D186D106D00451BAE004E
:1059B000150135410090019E3543EEB2034D2F682D
:1059C000029D7E5500BF00BF01E700009402002049
:1059D000704770B50446002600252068C068402145
:1059E000084000281BD12068C06880210843216836
:1059F000C860FDF74BF8064609E0FDF747F8801B45
:105A00007D21C900884202D90420607701252068E1
:105A1000C06840210840002801D1012DEDD1284661
:105A200070BD70B5044600252068C0688021884399
:105A30002168C8602068806820210840002807D1BC
:105A40002046FEF73FF9002802D0042060770125A8
:105A5000284670BDF3B581B00E4600BF1B4B1C48F5
:105A600002781C490198FEF773FD0546002D2AD1E6
:105A7000002426E01748005D1749097888421FD1A5
:105A8000134800782018471E322F18DA1148C05DDD
:105A900012490978884212D10E49601C085C0090B6
:105AA0000A46E31CD118009A1201921910460830D8
:105AB0000822FAF76BFC01200949087000BF00BFFB
:105AC000641C322CD6DB002DC8D0FEBDB80B000004
:105AD0008E000020AC0200208C0000208D000020F1
